:0400000080313C28E7
:1000060008007E14803120007F08F2000B1D0D28A9
:10001600FA0A0B112000911E3728EF308600233094
:1000260087000108893EF000F1012330F13D700898
:100036008600710887002300190881000130F0004E
:10004600EF3086002330870070088107EF30860086
:100056002330870065300106031D3628EF30860001
:10006600233087008101FA0172082000FF007E100C
:10007600090080313E2889308400233085006730AE
:10008600FE000030FF008831DB208031FA01A0300D
:100096008400003085003130FE000030FF008831DA
:1000A600DB208031F430840088308500E330860020
:1000B600003087000030FF000D308831CF208031BE
:1000C6000D3084008E308500203086000130870098
:1000D6000030FF004A308831CF208031EA3084007A
:1000E6008A308500A0308600013087000030FF008E
:1000F60022308831CF207E1020008631C22E013476
:1001060000340A34003464340034E83403341034E0
:100116002734573461346934743469346E3467343F
:10012600203466346F34723420344E3452344634BC
:1001360035343234203474346F34203463346F34BD
:100146006D3470346C34653474346534203427343B
:10015600333447344E3441345634273420346334F0
:100166006F34643465342E342E342E340D340A3410
:1001760000342E342E342E3420344E345234463449
:100186003534323420346834613473342034633483
:100196006F346D3470346C3465347434653464345F
:1001A60020342734333447344E34413456342734DC
:1001B600203463346F34643465340D340A340034C7
:1001C60052346534733465347434743469346E343B
:1001D6006734203469346E3473347434723475344D
:1001E6006334743469346F346E3420347034743448
:1001F6007234203474346F342034303478343534E7
:1002060030342E340D340A340034473465347434B3
:10021600743469346E34673420346E34653478341B
:1002260074342034433454344934203469346E34BD
:1002360073347434723475346334743469346F349B
:100246006E342E342E342E340D340A3400345734A2
:1002560061346934743469346E34673420346634F6
:100266006F34723420344E3452344634353432349A
:10027600203474346F342034663469346E3469340F
:10028600733468342E342E342E340D340A3400344C
:10029600523475346E346E3469346E3467342034B7
:1002A60069346E347334743472347534633474342C
:1002B60069346F346E3420342734333447344E3443
:1002C6004134563427342E340D340A340034533432
:1002D600743461347234743469346E34673420345F
:1002E6004334543444344E342034743469346D34D5
:1002F6006534723420346134743420343234353405
:1003060035342E340D340A34003445346E346434B6
:1003160020346F346634203469346E347334743464
:10032600723475346334743469346F346E34203403
:100336007034613474347434653472346E342E34EB
:100346000D340A34003453347434613472347434E2
:1003560069346E34673420344334543444344E3470
:100366002034743469346D34653472342034613425
:100376007434203472342E340D340A340034543438
:1003860068346934733420346934733420347434F3
:1003960068346534203466346934723473347434A2
:1003A6002034703477347234753470342E340D340E
:1003B6000A340034573461346934743469346E3421
:1003C6006734203466346F34723420344734503402
:1003D600533420346634693478342E342E342E3433
:1003E6000D340A3400342E342E342E344E34523426
:1003F600463435343234203468346134733420342E
:10040600663469346E3469347334683465346434FC
:100416002E340D340A34003450347234653470345A
:100426006134723469346E346734203474346F3412
:10043600203473346C346534653470342034773446
:10044600693474346834003445346E347434653435
:10045600723469346E346734203443345434493446
:1004660020346D346F34643465342E340D340A34DC
:10047600003452346534613463346834653464342A
:10048600203445346E3464342E342E342E343F34C6
:100496003F343F343F340D340A340034353420348D
:1004A6002D342034473450345334203443346F349D
:1004B6006D346D3420344C346F3463346B340D3406
:1004C6000A340034253464343A34253464343A34F6
:1004D600253464342034253464342D34253464348E
:1004E6002D34253464340D340A3400342E342E343D
:1004F6002E34203447346F34743420344734503427
:10050600533420346634693478342E340D340A3446
:10051600003461347334203473346C346534653498
:100526007034203476346134723473342E340D349E
:100536000A340034343420342D34203455346E34A7
:1005460069346D34703420344C346F3463346B3416
:100556000D340A340034313420342D3420344834F8
:1005660061347234643420344C346F3463346B3405
:100576000D340A340034323420342D3420344934D6
:100586003234433420344C346F3463346B340D349A
:100596000A34003453346C34653465347034203492
:1005A6006534723472346F3472342E340D340A3436
:1005B600003454344334203469347334203468347A
:1005C6006934673468342E340D340A3400346E349A
:1005D6003D342534643471343D3425346434723406
:1005E6003D34253464340034893086002330870056
:1005F6004A310108F30073082100A0008930860003
:10060600233087004B310108F3007308A1008930BD
:100616008600233087004C310108F3007308A200DE
:1006260089308600233087004D310108F3007308B6
:10063600A30089308600233087004E310108F3007D
:100646007308A40089308600233087004F310108E3
:10065600F3007308A50089308600233087005031E7
:100666000108F3007308A60089308600233087004E
:1006760051310108F3007308A70089308600233042
:1006860087005B310108F3007308A80089308600F3
:10069600233087005C310108F3007308A900893014
:1006A6008600233087005D310108F3007308AA0035
:1006B60089308600233087005E310108F300730815
:1006C600AB0089308600233087005F310108F300D4
:1006D6007308AC00A9308600233087000108F300B8
:1006E6007308AD00AA308600233087000108F300A6
:1006F6007308AE00AB308600233087000108F30094
:100706007308AF00AC308600233087000108F30081
:100716007308B000AD308600233087000108F3006F
:100726007308B100AE308600233087000108F3005D
:100736007308B200AF308600233087000108F3004B
:100746007308B300B0308600233087000108F30039
:100756007308B400B1308600233087000108F30027
:100766007308B500B2308600233087000108F30015
:100776007308B600CB308600233087000108F300EB
:100786007308B700CC308600233087000108F300D9
:100796007308B800CD308600233087000108F300C7
:1007A6007308B900CE308600233087000108F300B5
:1007B6007308BA00CF308600233087000108F300A3
:1007C6007308BB00D0308600233087000108F30091
:1007D6007308BC00D1308600233087000108F3007F
:1007E6007308BD00D2308600233087000108F3006D
:1007F6007308BE000800210020082000CA004A082D
:10080600CC00210021082000CA004A08CD002100A2
:1008160022082000CA004A08CE0021002308200032
:10082600CA004A08CF00210024082000CA004A084E
:10083600D000210025082000CA004A08D100210066
:1008460026082000CA004A08D20021002A082000F3
:10085600CA004A08D30021002B082000CA004A0813
:10086600D40021002C082000CA004A08D500210027
:100876002D082000CA004A08D60021002E082000B4
:10088600CA004A08D70021002F082000CA004A08DB
:10089600D800210030082000CA004A08D9002100EB
:1008A60031082000CA004A08DA0021003208200078
:1008B600CA004A08DB00210033082000CA004A08A3
:1008C600DC00210034082000CA004A08DD002100AF
:1008D60035082000CA004A08DE002100360820003C
:1008E600CA004A08DF00210037082000CA004A086B
:1008F600E000210038082000CA004A08E100210073
:1009060039082000CA004A08E20021003A082000FF
:10091600CA004A08E30021003B082000CA004A0832
:10092600E40021003C082000CA004A08E500210036
:100936003D082000CA004A08E60021003E082000C3
:10094600CA004A08E700210027082000CA004A0812
:10095600E800210028082000CA004A08E900210012
:1009660029082000CA004A08EA004C30CA004A0892
:10097600C3000830CB004B08C4000E308C31C824AD
:10098600833154302000CA004A08C3000830CB0027
:100996004B08C4000F308C31C82483315C302000F2
:1009A600CA004A08C3000830CB004B08C400103008
:1009B6008C31C824833164302000CA004A08C30041
:1009C6000830CB004B08C40011308C31C824080015
:1009D6002000BE002930B5003508B9002808B60049
:1009E6002708B500A70A0319A80A3508840036089F
:1009F60085000008B7003708BF003F080319B42D6B
:100A060025303F060319132D3F08B5003E08860022
:100A16008701350881000130B5003508BE07F12C85
:100A2600BA012808B6002708B500A70A0319A80ABC
:100A360035088400360885000008BF00003A03190F
:100A4600B42D643A03192B2D0D3A03192B2DF12CD5
:100A5600390886008701403FBC00413FBD00023097
:100A6600B5003508B907BD1F412D0330B50035085F
:100A7600BA04BC09BD09BC0A0319BD0ABF01BF0AF5
:100A860005303F060319662D3F08B500B601B5359A
:100A9600B60D8230350784008030363D8500003F34
:100AA600B700013FB80038083D02031D5C2D37082A
:100AB6003C02031C662D0130B5003508BF07053022
:100AC6003F06031D472D3A0803390319752D2D30AE
:100AD600B5003E0886008701350881000130B50063
:100AE6003508BE073F08B5003508BB00FF30B50026
:100AF6003508BB073B0A0319F12C0A30A300003066
:100B0600A4003B08B500B601B535B60D82303507F1
:100B160084008030363D8500003FF300013FF4003D
:100B26003D08F6003C08F5008C31932484317408A6
:100B36002000A6007308A5008B31D3238431200042
:100B46002308303EB7003708BF003F08B5003E080F
:100B560086008701350881000130B5003508BE07DB
:100B6600792D3E0886008701810108002000E301F7
:100B7600E40101304A02003003194902031CCC2D5E
:100B86000130CB004B08E307FF30C9020030CA3BF7
:100B9600BC2D4908CB004B08E400EA30A7008230A0
:100BA600A8004A08AA004908A9006308CB00CC019E
:100BB6004B08AB004C08AC006408CD00CE014D08D4
:100BC600AD004E08AE004F308431EB2485310F3036
:100BD6002000A3008230A4008A31342285314F30B0
:100BE6002000A3000030A4008A31342285318C30E5
:100BF6002000A3008230A4008A31342285312000EF
:100C0600630803191E2EC30163088A318B228531BE
:100C160002302000CB004B08C30064088A318B22C7
:100C260085316A302000A3008130A4008A31342245
:100C36008531FF30372E2000C30100308A318B22E8
:100C4600853102302000CB004B08C30064088A318E
:100C56008B228531A6302000A3008130A4008A3182
:100C660034228531200064088B317C2385318A311A
:100C7600502285313D2E4B302000A3008130A40048
:100C86008A313422863122000C1606302000ED000F
:100C96001330EC00B130EB00EB0B4F2EEC0B4F2E6C
:100CA600ED0B4F2E00328731BE27863106302000ED
:100CB600ED001330EC00B130EB00EB0B602EEC0BCB
:100CC600602EED0B602E0032DD302000A300813057
:100CD600A4008A31342286318C315E248631003A72
:100CE600031D842E08302000ED009D30EC000B30F3
:100CF600EB00EB0B7C2EEC0B7C2EED0B7C2E0032EE
:100D06006F2E79302000A3008230A4008A3134226D
:100D160086318831702086318331FE238631033057
:100D260088318620863122008C158D168D148C30E4
:100D36002000A3008030A4008A3134228631883115
:100D46005A208631003A0319A22EBC302000A30097
:100D56008030A4008A31342208302000EB006B0872
:100D660022008C05DF302000EB006B0822008D0589
:100D7600FD302000EB006B0822008D0508008A314B
:100D8600A92286318831B8208631003A0319D62E39
:100D9600C2302000A3008130A4008A31342286317B
:100DA60088317D208631883156208631F730210002
:100DB600E000600822008D05883152208631003A15
:100DC6000319F02EDC302000A3008230A4008A3103
:100DD600342286318D317F2586318C312E24863121
:100DE600003A0319012FCD302000A3008230A40061
:100DF6008A31342286318031032086318B31532368
:100E0600863189311121863140308C31002486317A
:100E16002100E00060082200EA006A03031D1F2F7C
:100E260027302000A3008230A4008A313422863184
:100E36008731442786312A2F023022006A06031D95
:100E4600262F0430272F01308F31A52786313C30DD
:100E56002000A3008230A4008A31342286318931F1
:100E66000121863103302100E2008A30E10056304C
:100E7600E000E00B3C2FE10B3C2FE20B3C2F003255
:100E86002A2F782F86313E2687314F302100D10018
:100E960051082000C30021005B08033E8A318B22E3
:100EA6008731782F210057082000CA0021005608F4
:100EB6002000C9008531B92587314F302100D10086
:100EC60051082000C30021005B08033E8A318B22B3
:100ED6008731782F88302000A3008130A4008A3122
:100EE6003422873189311121873108302000A3004F
:100EF6008130A4008A31342287314F308C3100246E
:100F060087312100D1005108DB005B088C310024B9
:100F160087312100D1005108D8005B08013E8C3191
:100F2600002487312100D1005108D9005B08023E18
:100F36008C31002487312100D1005108DA0059088C
:100F4600D100D2015A08D300D4015308D400D301EA
:100F560051085304D60052085404D70021005808FB
:100F6600003A03196D2F033A0319452F073A03195F
:100F7600552F782F782F31302000A3000130A400A0
:100F86008B310C2387313D302000A3000130A400B3
:100F96008B310C23873149302000A3000130A40097
:100FA6008B310C23873155302000A3000130A4007B
:100FB6008B310C238731AA302000A3000130A40016
:100FC6008B310C238731B6302000A3000130A400FA
:100FD6008B310C23873106302000A9001330A8007E
:100FE600B130A700A70BF52FA80BF52FA90BF52FEE
:0A0FF600003223001D121D16080032
:10109E0087314427080020000D0810390800200071
:1010AE000E080139080020000C0802390800A03093
:1010BE0024009100141D08006128A1302400910025
:1010CE00141D08006728210091128B120B178B1725
:1010DE0008008B31A62388318231F72208002400C4
:1010EE001108F3007308F400740808008D3102250E
:1010FE0088318B312F2388318D313F250800200018
:10110E00C6004608C5004508C3000A308A318B2246
:10111E0008000C3023009B001E151E129F119D17F8
:10112E001D169E16080004302400920028309500EB
:10113E009401183021008E00080096302200910094
:10114E0020309200C4309700171B0800AB282000F7
:10115E00950121009512151295111514951415155A
:10116E0008000F308C3100248831013A0319C12850
:10117E000130080000300800C63021008C00043019
:10118E0023008C00343021008D00A1308E00080029
:10119E00FE0012001E000130FE020030FF3B7F08F1
:1011AE007E0403190034D02864008001013101301F
:1011BE00FE020030FF3B7F087E0403190034DC285A
:1011CE0089308600233087004A3103300106031D23
:1011DE00F22801300800003008000034FF340034DB
:1011EE0000340834B534623401340334003400342E
:1011FE0004340D342000023090008230F400DD30D3
:10120E00F300F30B0829F40B0829003220000030FC
:10121E00900008004F302000C5004508C300503034
:10122E008A318B228931E3302000A3008030A40064
:10123E008A3134220800200095018B16FA01240011
:10124E00161F32290B307A02031C262902308F31E9
:10125E00A527893126298B120800F9002000950157
:10126E008B16FA0123009E1C39290B307A02031CBF
:10127E0042298F314E278B12790823009A000800DD
:10128E008930F3002330F4000030F500F6006630AC
:10129E00F7000030F8008A310122EF30860023304B
:1012AE0087008101080024009615200095018B16F9
:1012BE00FA012400961D6C290B307A02031C60295A
:1012CE0002308F31A527893160298B120800240046
:1012DE001614200095018B16FA012400161C802985
:1012EE000B307A02031C742902308F31A527893105
:1012FE0074298B12080024001615200095018B16F8
:10130E00FA012400161D94290B307A02031C882939
:10131E0002308F31A527893188298B120800D330EE
:10132E0024009100200095018B16FA012400141D53
:10133E00A9290B307A02031C9D2902308F31A52773
:10134E0089319D298B120800D23024009100200093
:10135E0095018B16FA012400141DBE290B307A025A
:10136E00031CB22902308F31A5278931B2298B1285
:10137E000800240096161616200095018B16FA0109
:10138E002400161ED3290B307A02031CC729023003
:10139E008F31A5278931C7298B1208002400961298
:1013AE001616200095018B16FA012400161EE82948
:1013BE000B307A02031CDC2902308F31A5278931CC
:1013CE00DC298B1208002000C20042082400910084
:1013DE00200095018B16FA012400141DFF290B30F5
:1013EE007A02031CF32902308F31A5278931F329A4
:1013FE008B12080074082000A1007308A0000130B1
:10140E00F7020030F83B770A0319780A031908002F
:10141E002008860021088700750881000130A0078A
:10142E000030A13D062AF7007708F5007508F60092
:10143E00760886008701730884007408850000080A
:10144E00C03F8908031908000130F5007508F6073A
:10145E000130F3070030F43D1F2A2000A601A7013A
:10146E002308260784002408273D8500120003194F
:10147E0008002308260784002408273D850000085D
:10148E00893134218A3101302000A6070030A73D72
:10149E00372A18302000C5004508C3002D308A3188
:1014AE006D228A310F302000C5004508C300003080
:1014BE008A316D228A3117302000C5004508C300DD
:1014CE0080308A316D2222008D1508002000C40064
:1014DE0089316E218A318931AB218A3189312221BC
:1014EE008A31200043088931EA218A31893122214B
:1014FE008A31200044088931EA218A31893122213A
:10150E008A318931822108002000C40089316E2180
:10151E008A3188315E208A31893122218A31200038
:10152E0043088931EA218A31893122218A3120000A
:10153E0044088931EA218A31893122218A3189315F
:10154E00822108006030210099008831C3208A3141
:10155E008831A4208A311C302100970088319020D8
:10156E008A3188319A208A318831AE208A31883189
:10157E006A208A318A31C922DF30F80078082200C9
:10158E008D0508000C30250093000C309A001730A2
:10159E0020009B0004309C000030F300F40000306B
:1015AE008E31F8268A310030F300F40001308E318E
:1015BE00F8268A310030F300F40002308E31F8261E
:1015CE0020001C150800B534623405340134023491
:1015DE000034063401340F3438340B34B5346234ED
:1015EE000634013403340034F03404340034FE3451
:1015FE0017340B34B53462340634013403340034FA
:10160E00F03405340034FF34193401302000A500C5
:10161E000030A60023088600240887002608803A9A
:10162E00803C031D1C2B25080102031C0800200012
:10163E002508230786002608243D870001088931E6
:10164E0034218B3101302000A5070030A63D112B2F
:10165E0011302000C5004508C30018308A316D22B4
:10166E008B3130302000C5004508C3002D308A3143
:10167E006D228B3110302000C5004508C3000430A8
:10168E008A316D228B311C302000C5004508C30005
:10169E0000308A316D2208000F30883186208B3160
:1016AE0022008C158D162A302000A3008130A40054
:1016BE008A3134228B3188315A208B31003A03190A
:1016CE00622BF6302000A3008130A4008A31342230
:1016DE0008302000C700470822008C05DF302000AC
:1016EE00C700470822008D0508002000C8001930E9
:1016FE00C5004508C30048088A316D228B31183069
:10170E002000C5004508C300C3308A316D228B31DD
:10171E0006302000C7001330C600B130C500C50B1F
:10172E00962BC60B962BC70B962B0032183020002B
:10173E00C5004508C300C3308A316D220800200061
:10174E00C40161302000A7000130A8000530C2009E
:10175E004208A9006430C3004308AA008D31C52594
:10176E008B31003A031D0800033020004402031C95
:10177E00C42B05308F31A5278B3101302000C200DC
:10178E004208C4074130C300EE30C200C20BCD2B5D
:10179E00C30BCD2B0000A82B200023082404031913
:1017AE00FB2BF901F90AA41BE62B0130A335A40D7E
:1017BE00890BDD2B0130F8007808F907DA2B2408A5
:1017CE002602031DEC2B23082502031CF22B2308F3
:1017DE00A5022408A63B0130A436A30C890BF32BDB
:1017EE000130F902031DE62B2608A4002508A300EC
:1017FE0008002000C40089316E218C3188315E20B2
:10180E008C31893122218C31200044088931EA2122
:10181E008C31893122218C3189316E218C31883184
:10182E0064208C31893122218C3189315A218C31BD
:10183E00883176208C312000C3004308C5008931E1
:10184E00C0218C3189318221200045080800893160
:10185E006E218C318931AB218C31893122218C3131
:10186E0017308931EA218C31893122218C3189312D
:10187E0082218C3189316E218C31893196218C31C6
:10188E00893122218C3189315A218C31883176204F
:10189E008C312000C3004308C400893182218C3171
:1018AE002000C41F5C2C013008000030080020000E
:1018BE00C401E7302000A7000030A800A901A90A42
:1018CE001830C2004208AA008D31C5258C31003A6D
:1018DE00031D892C033020004402031C7A2C053092
:1018EE008F31A5278C3101302000C2004208C40779
:1018FE004130C300EE30C200C20B832CC30B832CCD
:10190E000000602C8831E7208C31003A0319912CAD
:10191E0001300800003008002000A101A201730868
:10192E0074040319C32CA001A00AF41BA82C0130C7
:10193E00F335F40D890B9F2C0130F7007708A007C3
:10194E009C2C0130A135A20D890BA92C74087602AE
:10195E00031DB32C73087502031CBA2C7308F50211
:10196E007408F63B21140130F436F30C890BBB2CB2
:10197E000130A002031DA82C2208F4002108F30058
:10198E0008002000C7004708C5000230C535FF3EDD
:10199E00031DCD2C4535C6004608C80089316E2181
:1019AE008C3188315E208C31893122218C3120009E
:1019BE0048088931EA218C31893122218C3120006D
:1019CE00C901440849020318FF2C49084307C50002
:1019DE0045088600870101088931EA218C31893159
:1019EE0022218C3101302000C5004508C907E82CA2
:1019FE0089318221080089316E218D318931AB21E7
:101A0E008D31893122218D3101308931EA218D319B
:101A1E00893122218D3100308931EA218D31893190
:101A2E0022218D3115308931EA218D3189312221E2
:101A3E008D3109308931EA218D31893122218D3163
:101A4E0006308931EA218D31893122218D310330E1
:101A5E008931EA218D31893122218D31163089313A
:101A6E00EA218D31893122218D318931822108007F
:101A7E00210066082000D700210065082000D6004E
:101A8E00210064082000D500210063082000D40046
:101A9E00BF308600003087004C3084000030850057
:101AAE000830CA0016001A00CA0B592D5430CA004D
:101ABE004A08C3000330CB004B08C40000308C3101
:101ACE00C8248D310F302000CA004A08C3000130EF
:101ADE008A318B228D314C302000CA004A08C30057
:101AEE000730CB004B08C40008308C31C8240800E6
:101AFE0021005008DF004F08DE004E08DD004D08C3
:101B0E00DC00DC302000EE006E08C3000330EF0076
:101B1E006F08C40000308E3157268D3102302100FF
:101B2E005C02031CAB2D0130DC022000C30121003E
:101B3E005C088A318B228D31FF308B317C238D31C5
:101B4E008A3150228D31AA2D21005C03031DBE2D3A
:101B5E002000C30100308A318B228D3121005E08B6
:101B6E008B317C238D318A3150228D31BD2D210058
:101B7E005C08031D080088314F20080021009116D3
:101B8E00A6302000AB00AB0BCA2D000089314721D7
:101B9E008D3120002808A4002708A3008B310C23C8
:101BAE008D312000AD0129082D020318ED2D2130B5
:101BBE00AC007630AB00AB0BE22DAC0BE22D00008F
:101BCE0001302000AB002B08AD07DA2D95018B16E6
:101BDE00FA0128307A020318FC2DEF3086002330EC
:101BEE00870001082A06031DF02D8B12FA01210031
:101BFE009112EF30860023308700010820002A065C
:101C0E00031D0B2E01300800003008000834B534D7
:101C1E006234013402340034003403340A34103494
:101C2E0011341234133414341534163417340B346F
:101C3E00B53462340634013403340034F0340034E5
:101C4E000034FA340F340B34B534623406340134B4
:101C5E0003340034F03401340034FB3411340B34CB
:101C6E00B53462340634013403340034F0340234B3
:101C7E000034FC3413340B34B5346234063401347E
:101C8E0003340034F03403340034FD341534083496
:101C9E00B534623401340734003400340834193456
:101CAE002000C70089316E218E3188315E208E3141
:101CBE00893122218E31200047088931EA218E3167
:101CCE00893122218E3189316E218E318831642005
:101CDE008E31893122218E312000C80144084802FC
:101CEE000318A22E89315A218E31883176208E31F9
:101CFE002000C50048084307C60046088600870135
:101D0E00450881004408FF3EC500FF30031800302F
:101D1E00C600480845064604031D992E8931C02188
:101D2E008E319C2E8931D5218E3101302000C50097
:101D3E004508C807752E8931822108002000BC0095
:101D4E00E82EAE30F3008230F40028308A311A22A9
:101D5E008E3128302000A3000030A4008A313422B6
:101D6E000800BE30F3008230F40028308A311A2287
:101D7E008E3128302000A3000030A4008A31342296
:101D8E0008009D30F3008230F40028308A311A2288
:101D9E008E3128302000A3000030A4008A31342276
:101DAE0008005130F3008230F40028308A311A22B4
:101DBE008E3128302000A3000030A4008A31342256
:101DCE00080020003C08013A0319A82E033A031913
:101DDE00B82E063A0319C82E013A0319D82EF72E3B
:101DEE000800F700422F73080239F5000330F5356D
:101DFE00FF3E031DFE2E7535F60076082500930472
:101E0E0073080139F5000330F535FF3E031D0B2F26
:101E1E007535F600760893047408F6007308F5001D
:101E2E00F636F50CF636F50C7508910008007308B9
:101E3E000239F5000330F535FF3E031D222F7535AF
:101E4E00F600760825009A0473080139F500033070
:101E5E00F535FF3E031D2F2F7535F60076089A04D3
:101E6E007408F6007308F500F636F50CF636F50C28
:101E7E007508980008007708003A0319FA2E013AFF
:101E8E0003191E2F033A03194D2F4D2F080014303E
:101E9E00F3000030F40000308E31F8268F3103301D
:101EAE002000A2008A30A1005630A000A00B5D2FAA
:101EBE00A10B5D2FA20B5D2F0032F80103307802CB
:101ECE000318962F5030F3000030F40000308E319E
:101EDE00F8268F3134302000A100F130A000A00B85
:101EEE00762FA10B762F00321430F3000030F40061
:101EFE0000308E31F8268F318F302000A100DA307D
:101F0E00A000A00B882FA10B882F0000013020000D
:101F1E00A0002008F80703307802031C692F0B304D
:101F2E002000A2002630A1006630A000A00B9D2F3D
:101F3E00A10B9D2FA20B9D2F0032642F2000C100FC
:101F4E001430F3000030F40000308E31F8268F315B
:101F5E0003302000BF008A30BE005630BD00BD0BDE
:101F6E00B62FBE0BB62FBF0BB62F00322000C0010E
:101F7E00410840020318ED2F5030F3000030F400FA
:101F8E0000308E31F8268F3134302000BE00F13013
:101F9E00BD00BD0BD02FBE0BD02F00321430F3007E
:101FAE000030F40000308E31F8268F318F30200053
:101FBE00BE00DA30BD00BD0BE22FBE0BE22F0000DB
:101FCE0001302000BD003D08C007BF2F41088E31F3
:101FDE00A5268F310B302000BF002630BE006630A4
:101FEE00BD00BD0BF82FBE0BF82FBF0BF82F003224
:021FFE00BD2FF5
:020000040001F9
:04000E00E7FFFFFF0A
:00000001FF
